:020000040800F2
:1000000090610020DDA7000889A300088BA30008E9
:100010008DA300088FA3000891A300080000000032
:100020000000000000000000000000000B2B000892
:1000300093A3000800000000C52A000877260008E6
:1000400013A8000817A800081BA800081FA800088C
:1000500023A8000827A800082BA800082FA800083C
:1000600033A8000837A800083BA800083FA80008EC
:1000700095A300089BA30008A1A30008A7A300085C
:10008000ADA30008B3A3000843A8000847A80008D0
:10009000B9A300084BA800084FA8000853A80008FF
:1000A00057A80008BFA300085BA800085FA80008C5
:1000B00063A8000867A800086BA800086FA80008DC
:1000C00073A8000877A800087BA800087FA800088C
:1000D000C5A30008CBA30008DFA30008F3A3000812
:1000E00083A8000887A800088BA800088FA800082C
:1000F00093A8000897A800089BA800089FA80008DC
:10010000A3A80008A7A80008ABA80008AFA800088B
:10011000F9A30008B3A80008FFA30008B7A80008C7
:10012000BBA80008BFA80008C3A80008C7A800080B
:100130002DE9F04F0FF6A03CA1B0DCE90089CDE934
:1001400000892A9DDFF8F498049100248DF843502B
:100150000D944FF0FF38824616461F460FE0B34617
:100160002C461BF8011B0498D0470028049000F08F
:10017000A3800D98401C641E0D90F2D17619307842
:10018000252808D1002100220791089209910A929E
:100190000B910C920DE06A464146304600F05EFE3F
:1001A000050001D10D9899E0D9D50125E6E741F088
:1001B000010116F8010F2028F9D023280CD02B2894
:1001C00004D02D2805D0302809D077E041F0020175
:1001D000EFE741F00401ECE741F00801E9E741F005
:1001E0001001E6E70F9209E00F98484505DA00EBA9
:1001F000800402EB4402303A0F92761C3278A2F16E
:1002000030000A28F0D330782E2818BFCDF8388077
:1002100022D116F8010F2A2807D138683860761CD9
:1002200050F8042B38600E9216E02D280CBF761C77
:10023000002000220E920AE040B90E9A4A4505DAE3
:1002400002EB820403EB4403303B0E93761C3378BD
:10025000A3F130020A2AEFD3ADF840100FF6802048
:10026000317800F003FE08B116F8010B8DF842005A
:100270009DF84200682804D1307868280AD16221AC
:1002800005E06C2804BF30786C2803D171218DF80B
:100290004210761C12A806903A4616F8013B02A9B5
:1002A000504600F05BF838B912AA02A9504600F097
:1002B00085F900287FF563AF40460FE02A2891D1E9
:1002C0003A683A6052F8040B3A6000280F9003D560
:1002D00040420F9041F00401761C94E721B0BDE844
:1002E000F08F622820D0682811D06A2803D06C28AB
:1002F00027D0712825D10868C01D20F007000860AC
:10030000D0E9002308300860194610467047002ADB
:100310000A680A60106803D0121D0A6000B217E074
:10032000121D0A6080B217E0002A0A680A6010688D
:1003300003D0121D0A6040B20AE0121D0A60C0B26A
:100340000AE0002A0A680A60106803D0121D0A60D9
:10035000C1177047121D0A600021704770B51C4616
:100360000D46B4F125002E69114600F015812038A4
:10037000022863D9133840D00B3816D0401E1ED047
:10038000401E02285AD9001F19D0401F00F081805A
:10039000401E32D0401E00F0CB80C01E00F0DA803C
:1003A000801E2AD0C01E28D0FCE06869421C6A6109
:1003B0000A680A6052F8043B0A603354FCE095F87E
:1003C0003A000122FFF78DFFC5E90001002904D59D
:1003D0006869411C69612D220DE0288F810704D5D1
:1003E0006869411C69612B2205E0C00721D5686955
:1003F000411C6961202232541BE095F83A0000222A
:10040000FFF76FFFC5E9000195F83800010710D527
:10041000D5E90023002B08BF002A0AD044F02000B1
:10042000782806D1686930213154401C421C6A6129
:100430003454214668693044E86087E00868C01D8C
:1004400020F007000860D0E9002308300860C5E903
:100450000023D5E90001C80F04D06869411C696117
:100460002D220DE0288F810704D56869411C696140
:100470002B2205E0C00704D56869411C6961202270
:10048000325468693044E8602146284600F0B9F9E2
:1004900092E005F13A02507820B14FF0FF340FF6A8
:1004A000480062E01078622808D0682824D06A28C2
:1004B00012D06C282ED071280ED02BE00A680A606A
:1004C00052F8040B0A6020B94FF0FF340FF63000E9
:1004D0004BE0E96A01706FE00A680A6052F8040BA9
:1004E0000A6020B94FF0FF340FF614003DE0EA6ACD
:1004F000D317C0E900235FE00A680A6052F8040BD2
:100500000A6020B94FF0FF340FF2F4702DE0E96A71
:10051000018051E00A680A6052F8040B0A6020B9B1
:100520004FF0FF340FF2D8701FE0E96A016043E03A
:100530000A680A6052F8040B0A60002120F00002E9
:1005400021F0FF33C5E90023EE607821284600F052
:10055000B0F831E00868086050F8044B0860EC60BF
:100560003CB94FF0FF340FF2B07000F0A7FC201A36
:1005700070BD2E6B002E04D5204600F0BFFC044653
:1005800008E032460021204600F0D8FC002814BFC5
:10059000041B3446AC610FE06869411C6961252287
:1005A000325409E06969481C6861252272542100AF
:1005B00002D0431C6B613454002070BD2DE9F04122
:1005C0000E4605469046726B7069316AB46A121A1B
:1005D000B069521A716A121AF069521A121A96F810
:1005E0003800141B41070DD4002C0BDD2746B068E2
:1005F0002021A8470028B06057D0F06A401C7F1E19
:10060000F062F4D1736942463146284600F04CFB53
:1006100000284AD1376A002F0ADDB0683021A84788
:100620000028B06041D0F06A401C7F1EF062F4D117
:10063000B369F2683146284600F036FBA8BB776AFA
:10064000002F09DDB0683021A847B06068B3F06AB8
:10065000401C7F1EF062F5D1F068B169F369421861
:100660003146284600F020FBF8B9B76A002F09DDB3
:10067000B0683021A847B060B8B1F06A401C7F1E56
:10068000F062F5D196F8380041070BD5002C09DD52
:10069000B0682021A847B06038B1F06A401C641EE1
:1006A000F062F5D10020BDE8F0814FF0FF30BDE8E9
:1006B000F0812DE9FC4307466F293E6908BF0824F5
:1006C00005D041F02000782814BF0A2410243C25CE
:1006D000D7E90023642918BF69299046994605D1B6
:1006E000002B03D5D8F1000869EB4909B9F1000FD7
:1006F00008BFB8F1000F1FD1386BE8B9082C4CD1F6
:1007000097F83800010748D530203B2586F83B0094
:1007100043E000280ED597F8380000F014001028A8
:1007200008D17B6B7969386A5B1A1B1A9A1A002AFE
:10073000C8BF3A62BDE8F3838DF8001040464946D1
:100740002246E31700F026FC3032D0B26D1E3A2864
:10075000019504DB9DF80000A0F151018A18725543
:10076000404649462246E31700F014FC80465FEA03
:10077000010908BFB8F1000F03D0F8687119884269
:10078000DCD3082C09D197F83800010705D5705D36
:10079000302802D06D1E30207055C5F13C02BA6180
:1007A0007119F960386B8242B3DA821A3A624FF6F5
:1007B000EF70398F01403987BDE8F3832DE9D043CD
:1007C00006460F4614464FF00008DFF8749212E018
:1007D000E00707D542464B463046394600F0F2FC6A
:1007E00006460F464046494642464B4600F0EAFC64
:1007F000641080468946002CEAD130463946BDE86F
:10080000D0832DE9F047064689468EB0D6E900012F
:10081000CDE9020104AC306B002802D5062030631C
:1008200005E001BF49F02000672801213163D6E9C6
:10083000002358004015401C0DD119030BD0A9F11D
:10084000610103201A29B06102D20FF2E84110E0E1
:100850000FF2E4410DE059004915491C0ED118036F
:100860000CD1A9F1610103201A29B06116D30FF24E
:10087000D041F068032200F077FDDBE023F0004771
:10088000B7F5801F1046194622F000050DD2002250
:10089000002F08BF002D019203D116E00FF29C41FA
:1008A000E7E701AA00F0B4FD08E06648664900EBFE
:1008B000175001906548034010461943019B644D51
:1008C00047F29752534393FBF5F2C6E9000120F03B
:1008D000000331F0004104BF002B002300F0A28090
:1008E000DDE90240019220F00045D2F1070204DD6B
:1008F00020462946FFF762FF0AE052420020554990
:10090000FFF75CFF02460B462046294600F0B8FD83
:10091000044649F0200ABAF1660F306B06BF019D0C
:100920000A3506252D18142DC8BF142530208846F9
:100930008DF810000DF11107002D33DD20464146E2
:1009400000F0C2FE01460A4607F1080304200A2708
:10095000B2FBF7F707EB870EA2EB4E02303203F83B
:10096000012C0A22B7FBF2F202EB820EA7EB4E0734
:100970003037401E03F8027DE9D1083D002D03F118
:100980000807D9DD084600F0B3FE02460B462046B4
:10099000414600F0BBFE00222F4B00F013FC044642
:1009A0008846CBE70DF111003F1A0DF1110404E068
:1009B0000198401E7F1E0190641C20783028F7D0DB
:1009C000BAF1660F02D10198401C04E0BAF1650F3C
:1009D0000CBF01200020336BC3189F42B8BF7B1EA1
:1009E000002B1ED4BB4204DAE05C3528A8BF3920B6
:1009F00000DA30201946621E02EB010800E05B1E9F
:100A000018F80179491E8742F9D0392802D1605C73
:100A1000401C6054002904D50198401C14465B1CFE
:100A20000190019800B200901BB222464946304620
:100A300000F014F80EB0BDE8F0870000CBCCCC0C71
:100A40000000244002FCFFFF0000E03FFFFF0F809A
:100A5000A08601000000F03F84D797412DE9F847B8
:100A600083B005468A469146984600F0F9F9B8F1F8
:100A7000000F406A2F6B067803DC4FF001080FF27D
:100A8000C4294AF02000BDF93040662808BF641C24
:100A900013D0672840F08F8014F1040F7ADBBC423A
:100AA00078DA95F83800641C010702D4B845B8BF5D
:100AB000474620B23F1A48BF00270FFA84FAE86879
:100AC000A969BAF1000F23DC4A1C30234354002FDC
:100AD00003DC95F83800010702D5E8688654521CFB
:100AE00017EB0A0FB8BF7C4224B2E71960424745B2
:100AF000B8BFB846AA6168620FFA88F4EC61E8688A
:100B0000AB6922464946184400F02EFC3F1B18E012
:100B100022B29045084416DA4246494600F024FCC9
:100B2000A8694044A861AAEB0801002F696203DCB0
:100B300095F838100A0704D5E9680E54E869401C96
:100B4000E861AF6299E0494600F00EFCA869002F09
:100B50005044A8EB040803DC95F838100A0702D5C6
:100B6000E9680E54401CA8610FFA88F08742EB68D0
:100B7000A869B8BFB8460FFA88F209EB0A01184411
:100B800000F0F2FBA9690FFA88F00144A961381A54
:100B9000686272E0B84504DA95F838100A0758BF61
:100BA00047467F1E48BF0027BAF1670F0CBF4FF0C2
:100BB000650A4FF0450AA969EB68481CA861002F37
:100BC00019F8012B5A5403DC95F838100A0719D587
:100BD000E968431CAB610E54002F13DDA8F1010638
:100BE00030B28742D5F80CC0B8BF3E4632B2494653
:100BF0000CEB030000F0B8FBA86936B23018BF1B3D
:100C0000A8616F62E868A9690844002C80F800A018
:100C100003D42B224270811C03E02D2141706442D9
:100C2000811C00206A460AE023460A2493FBF4F460
:100C300004EB8406A3EB460302F8013B401C24B2FC
:100C4000002CF1DC012806DC4AF02002652A04BFF2
:100C5000302201F8012B48B9302001F8010B07E0E0
:100C6000401E1DF80030303301F8013B0028F7DC4E
:100C7000EA68A8691044091AE96195F8380000F09B
:100C8000140010280DD16A69A969686A8A18E9698F
:100C90008218A86A8A188218686B8242BCBF821ABE
:100CA0002A6204B0BDE8F087F8B505460E4617463F
:100CB0001C46002074B117F8011BB068A847B0604B
:100CC00030B1F06A401CF0620020641EF3D1F2BD26
:100CD0004FF0FF30F2BD00000000000000000000F7
:100CE000686A6C747A4C00007072696E74665F7327
:100CF0003A20256E20646973616C6C6F77656400BF
:100D00007072696E74663A2062616420256E20619B
:100D10007267756D656E74007072696E74665F736C
:100D20003A2062616420257320617267756D656E7B
:100D3000740000006E616E004E414E00696E6600E8
:100D4000494E46003000F0B402461068956813180A
:100D5000506803EB5004C0071DD54D441BE013F849
:100D6000017B05F8017B491EF9D1A0B1B60813F843
:100D7000011B06F00306032E08BF13F8016B01EBFD
:100D800006214942801C294405D011F8016B05F861
:100D9000016B401EF9D1A3420ED013F8016B16F07F
:100DA000030104BF13F8011BC91C30090F28DAD155
:100DB00013F8010B0F30D6E7F0BC02F10C007047BE
:100DC000613807E005E0A0F161011A2901D2012094
:100DD000704741381A288041C00F7047A0F10901BF
:100DE000052901D3202801D1012070470020704738
:100DF000A0F141011A2938BF2030704719487047C7
:100E000070B45368D418042B09DA41B1057804F89A
:100E1000015B10F8016B16B15B1C491EF3E75360D0
:100E200070BC704738B514461D4661B1FFF7E8FF46
:100E300061686A6B204690476FF00102811A02D008
:100E4000491E01D001E003E005E00021616032BDF0
:100E50006FF0010032BD4FF0FF3032BD014BE1E7D2
:100E600001487047CC01002094010020C9B20278EB
:100E70008A421AB11CBF10F8012FF9E718BF0020F1
:100E8000704730B4002513E050F8042BD30744BF5B
:100E9000A9F101039A18091F042942F8045BFAD248
:100EA00013468C0744BF15809B1CC90748BF1D70A3
:100EB00050F8041B0029E7D130BC704780B500B959
:100EC00006A005490B681BB122220021984701E0CA
:100ED00000F08DFC222002BD88410020636F6E73FC
:100EE000747261696E742068616E646C65723A2018
:100EF000626164206D6573736167650000F10103D1
:100F0000810704D010F8011B820781B1FAD1026871
:100F1000A2F10131914311F0803104BF50F8042F48
:100F2000F6E709BAB1FA81F100EBD100401CC01A12
:100F300070470268531C036011707047C9B2830781
:100F400006D0521E22D310F8013B9942F7D11FE080
:100F5000083A13D302F1040241EA012141EA0141B6
:100F600050F8043B121F21BF4B40A3F1013C2CEA77
:100F7000030C1CF0803FF3D0C9B2001F083210F8F8
:100F8000013B521E28BF91EA030FF8D818BF012079
:100F9000401E7047BBBBE1B1B2F5803F80F07E8060
:100FA000022A1ED98C46B1FBF2F102FB11C31B04CD
:100FB00043EA1043B3FBF2FC02FB1C3380B240EA6D
:100FC0000343B3FBF2F002FB103240EA0C40002373
:100FD0007047022A05D98446B0FBF2F002FB10C22A
:100FE00070474AB105D100F0010249085FEA3000BC
:100FF000704700220023704700F0FCBB0B0002008A
:10100000002100207047904271EB030CF6D3B3F53A
:10101000803F2FD2F0B5B3FA83F7B1FA81F4A7F18C
:101020000F0E3D1B5340CEF1200602FA0EF2F341A3
:101030005340B5F10F0746D80F3C2C444140C4F152
:101040002006A040F1414140B1FBF3F603FB16112D
:10105000A2FB0645001BA94102D2761E8018594109
:1010600080EA010221FA0EF362FA0EF200215A40E0
:101070003046F0BD30B4B1FBF3FC03FB1C11A2FB06
:101080000C45001BA94103D2ACF1010C8018594159
:1010900030BC02460B46604600217047B2F1807FAB
:1010A00065D3F0B5B2FA82F7B1FA81F4C7F10F0651
:1010B0003D1B22FA06F307F1110EF24120355A408A
:1010C000B5F10F07B8D94140C4F12006A040F14165
:1010D0004140B1FBF3FC03FB1C11A2FB0C45001BC0
:1010E000A94103D2BCF1010C801859410F2F12D332
:1010F0000F3FC90341EA5041B1FBF3F603FB161160
:10110000A2FB0645D4EBC030A94102D2761E80185E
:10111000594146EACC3C07B34140C7F12006B840EC
:10112000F1414140B1FBF3F603FB1611A2FB06456A
:10113000001BA94102D2761E8018594180EA0102A3
:1011400021FA0EF3C7F1200462FA0EF20CFA07F04E
:101150005A402CFA04F13043F0BD80EA010221FA32
:101160000EF3002162FA0EF260465A40F0BD8C4642
:10117000B1FBF2F102FB11C31B0243EA1063B3FBA4
:10118000F2FC02FB1C331B024CEA002043EA106312
:10119000B3FBF2FC02FB1C331B024CEA002043EAC7
:1011A0001063B3FBF2FC02FB1C331B024CEA002071
:1011B00043EA1063B3FBF2FC02FB1C324CEA002052
:1011C00000237047B0B581EA030C0CF0004C40F2EC
:1011D000FF7515EA11541DBF15EA1357AC42AF4213
:1011E00039E0E41923EA455343F48013C90241F07E
:1011F000004141EA505EC7021100A7FB020200282D
:101200004FF00000EEFB01204FF00001E3FB07214F
:1012100018BF42F00102401800214941E3FB0E01D2
:10122000A4F580640F0302D252004041494154F1B9
:1012300001046CDD470872F1004250F1000051EBEF
:101240000451A1F580115CBF41EA0C01B0BD4CEA2C
:1012500005510020B0BD05EA1357AC4214BFAF42A0
:1012600041E050EA410E1CBF52EA430E02E06146E3
:101270000020B0BD24423C441BD15FEA070EF6D0EB
:10128000090302BF01460020AEF1140EB1FA81F746
:10129000AEEB070401FA07FE0C37C7F1200100FA94
:1012A00007F7C8404EEA000E23EA455343F4801383
:1012B000A2E733F00043B3FA83F704BFB2FA82FE29
:1012C00077440B3FE41BB7F1200E2FBF02FA0EF359
:1012D000BB40C7F1200E22FA0EFE38BF43EA0E03D0
:1012E000BA40641C82E750EA410E14BF52EA430E32
:1012F0006FF000014FF4001717EB430F8ABF194638
:1013000017EB410FB5E74CEA05510020B0BDD4F111
:101310000104B4F120070FDAC4F12007520828BFF6
:1013200042F0010210FA07F501FA07F7E1BF2A437C
:10133000E0403843E1400FE0352C98DCC7F1200451
:1013400052EA400220FA07F218BF42F0010231FAD5
:1013500007F0A1400A43002172F1004250F1000061
:1013600051EB0C01B0BD000062B38B0708D0521ED8
:1013700011F8013B00F8013B00F024808B07F6D107
:10138000830740F0208000BF103A07D330B4B1E8A3
:101390003810103AA0E83810F9D230BC530724BFF7
:1013A000B1E80810A0E8081044BF51F8043B40F829
:1013B000043BD20724BF31F8022B20F8022B44BF94
:1013C0000B7803707047121F17D35B0009D151F8D7
:1013D000043B20F8023B1B0C121F20F8023BF6D204
:1013E0000BE051F8043B00F8013B1B0A20F8023BDC
:1013F0001B0C121F00F8013BF3D238BF121D521E06
:1014000024BF11F8013B00F8013BF8D870470000F9
:1014100010B5144600F002F8226010BDC1F30A5363
:1014200043B14A0012F5001F28D2A3F2FE32A1EB0D
:101430000251704750EA410C20D001F0004C31EAD3
:101440000C01B1FA81F204BFB0FA80F3D2180B3A62
:10145000B2F120032CBF00FA03F1914041EA0C01E4
:101460003EBFC2F1200C20FA0CF3194390405242C7
:1014700040F2FD33D21A01EB03517047002270474E
:10148000F0B540F2FF7581EA030C0CF0004C15EA50
:1014900011541DBF15EA1357AC42AF42E5E0BC4101
:1014A000C1F31301C3F31303801A994143F480136A
:1014B00004D2641E4000494180185941C90241EAE2
:1014C0005051B1FBF3F603FB1611A2FB0675D7EBE7
:1014D000C020A94102D2761E80185941C90241EAB2
:1014E0005051B1FBF3FE03FB1E11A2FB0E75D7EBAF
:1014F000C020A94103D2AEF1010E801859418902E2
:1015000041EA9051760546EA8E2EB1FBF3F603FBD5
:101510001611A2FB0675D7EB8020A94102D2761ED8
:1015200080185941C90241EA50514EEA060EB1FBFA
:10153000F3F603FB1611A2FB0675D7EBC020A941F9
:1015400002D2761E80185941C90241EA5051B1FBBE
:10155000F3F703FB1711A2FB0735D3EBC020A9411A
:1015600067F100070CBF004247F0010766F3D5277B
:101570004FEA1E31B80814F5806412DDBD0775F11D
:10158000004250EB0E5051EB045111F5801F5CBF2F
:1015900041EA0C01F0BD4CF07F6141F0E0410020D8
:1015A000F0BDBD076D0840EA0E5041F48011D4F142
:1015B0000104B4F120060ADAC4F120060200E0407A
:1015C00001FA06F3E1401843B24015430EE0342C13
:1015D00013DCC6F1200445EA40056D0820FA06F246
:1015E000154321FA06F0A1400D43002175F1004298
:1015F00050F1000051EB0C01F0BD00205FEA0C013E
:10160000F0BDCFB992185B41B3FA83F704BFB2FAC9
:1016100082F6BF190B3FB7F120062FBF02FA06F37F
:10162000BB40C7F1200622FA06F638BF3343BA4062
:101630001CB1E419641E33E77F4231F00041B1FA76
:1016400081F404BFB0FA80F6A4190B3CB4F1200673
:101650002FBF00FA06F1A140C4F1200620FA06F6D9
:1016600038BF3143A0403C1B1AE7AC421ABF05EA21
:101670001357AF4212E050EA41061CBF52EA43063C
:10168000BFE750EA4107304661461CBF41EA0551B9
:10169000F0BD52EA430C08BFC143F0BD00204FF437
:1016A000001616EB410F98BF16EB430F08BF16EB61
:1016B000410F24BFC14305E016EB430F0CBF614649
:1016C0004CEA0551F0BD0000400D491840EA812068
:1016D0000CD2490DA1F58061491C40F0004005DBAA
:1016E000D1F11F0154BFC840C01770470020704798
:1016F000014648B1B0FA80F18840C91CC1F5846147
:10170000090501EBD02140057047000070B44FF08F
:10171000004591EA030F40F177806B40841A71EB2A
:10172000030603D2001BB141121973414FF4001C90
:101730001CEB410F34BF7CEB430442E00C0DA4EBE7
:101740001356352E4FDC45EAC323DB0A45EAC12197
:10175000C912B6F120050DDD63FA05F6EB4086EA05
:101760000305124218BF45F00105C01851F10001F0
:101770000CD213E062FA06F5F2405540F3415A40AC
:10178000B340F3405A408018594107D349085FEAF3
:1017900030005FEA350528BF45F0010501F58011ED
:1017A000420875F1004250F1000041EB04514E0037
:1017B00016F5001F70BC38BF70470020090D0905E1
:1017C00070471CEB410F10D252EA43060BD0BCEB22
:1017D000410F05D80C0DAB43661E342EB6DD02E07A
:1017E000AB438018594170BC704770BC70470120F2
:1017F00000F0C0B87047000070B44FF0004591EAA7
:10180000030F7FF58BAF6B40841A71EB030604D294
:101810006E40001BB141121973414FF4001C1CEBC8
:10182000410F34BF7CEB430683E00C0DA4EB135651
:10183000362E00F37C80012E45EAC32341DC43EAC7
:10184000525312BFD20292025B08240545EAC1211D
:1018500041EA5051D2EBC020994125D407D1B0FACA
:1018600080F610FA06F162D00020203608E0B1FAC6
:1018700081F6B140C6F1200220FA02F21143B040D5
:101880004FEAF474B4EB465434F001064FEA7404A2
:101890000AD8D6F50016760D04F00044F04061FA3F
:1018A00006F25040F1404840C00A40EA415021F061
:1018B000004128BF5FEA500550F1000044EBD12100
:1018C00035E0DB0A45EAC121C90AB6F120050EDD83
:1018D00042EA0242120CC5F1200603FA06F6EB407A
:1018E00042EA06056D42984161F100010DE062FA9D
:1018F00006F5F240554063FA06FC82EA0C02F3401A
:101900005A406D42904161EB030111F4801F05D1F3
:10191000641E620502D06D004041494121F48011EE
:10192000430875F1004350F1000041EB045170BCD5
:1019300070471CEB410F15D223F0004352EA4306D7
:101940000BD04FEA4C0CBCEB410F04D80C0D661EBB
:10195000342EB7DDEBE7801A994150EA410608BF03
:101960000021E4E708BF1CEB430F28BF6FF0000124
:10197000DDE7000080B5AFF30080024A11001820B7
:10198000ABBEFBE72600020078B585B00B9D002DAD
:1019900007D1502080F31188BFF34F8FBFF36F8FB3
:1019A000FEE70C9C002C07D1502080F31188BFF378
:1019B0004F8FBFF36F8FFEE754260096009E542E84
:1019C00007D0502080F31188BFF34F8FBFF36F8F84
:1019D000FEE7002C10D00A9E2563022584F85150A2
:1019E00000250395029404AD0195009600F03CF8A3
:1019F000204600F08BF801E000200490049806B027
:101A000070BD2DE9F84384B00746884616469946CE
:101A1000B00000F06BFC05000AD0542000F066FC1A
:101A2000040001D0256304E0284600F0CDFC00E06E
:101A30000024002C13D00D990C98002284F851201A
:101A400003920294019100904B463246414638463B
:101A500000F00AF8204600F059F8012001E04FF0AC
:101A6000FF3005B0BDE8F0832DE9F04705460A9E3A
:101A7000306B00EB8200071FFF08FF0017F0070024
:101A800007D0502080F31188BFF34F8FBFF36F8FC3
:101A9000FEE70246102A08D2885CB41884F83400A5
:101AA000885C002801D0521CF4E7DDF8209000206B
:101AB00086F84300B9F1060F01D94FF00609099CD9
:101AC0009846C6F82C9006F1440ACAF80090CAF865
:101AD0000400301D00F005FD06F1180000F001FDC6
:101AE0003661C9F10709C6F8189076620020CAF875
:101AF00008008AF80C0042462946384600F02EFDC0
:101B00003060002C00D02660BDE8F08738B5044670
:101B100000F085FDDFF83C57E86C401CE864A86ADB
:101B2000002806D1AC62E86C01280BD100F02CFA39
:101B300008E0A86D002805D1E06AA96AC96A884250
:101B400000D3AC62A86E401CA866E06A696D0122F1
:101B5000824011436965211DDFF8F42600EB800304
:101B600002EB830000F0C0FC00F072FDA86D0028BD
:101B70000DD0A86AC06AE16A884208D24FF080504E
:101B8000DFF8EC160860BFF34F8FBFF36F8F31BDE6
:101B900010B504460020002C14D0DFF8B806406FC2
:101BA000002807D0502080F31188BFF34F8FBFF378
:101BB0006F8FFEE700F046F80021204600F05AFB48
:101BC00000F046F8002808D14FF08050DFF8A0164A
:101BD0000860BFF34F8FBFF36F8F10BD80B586B025
:101BE00000200590049003AA04A905A800F081FD37
:101BF0000598029004980190002000900346039AF3
:101C00000FF2E0610FF26130FFF7BEFEDFF844161D
:101C10000867002801D0012000E0002001280FD132
:101C2000502080F31188BFF34F8FBFF36F8F4FF0B9
:101C3000FF30C866012088650020086500F0AEFC12
:101C400007B000BDDFF80C06416F491C41677047C3
:101C500070B500242546DFF8FC65706F002807D1B9
:101C6000502080F31188BFF34F8FBFF36F8FFEE7D3
:101C700000F0D5FC706F401E7067706F002843D174
:101C8000F06C00281FD13FE0F068C46804F1180030
:101C900000F050FC201D00F04DFCE06A716D012247
:101CA000824011437165211DDFF8302600EB80036F
:101CB00002EB830000F018FCE06AB16AC96A88424E
:101CC00001D30120306630680028DDD1002C01D01E
:101CD00000F0BBF9F46D002C09D000F019F80028D1
:101CE00001D001203066641EF7D12846F065306EC1
:101CF000002809D001254FF08050DFF874150860E6
:101D0000BFF34F8FBFF36F8F00F0A2FC284670BD6A
:101D1000F8B50026DFF83C75786F002856D13C6D89
:101D2000641C3C6514D1F86A0068002807D0502074
:101D300080F31188BFF34F8FBFF36F8FFEE7F86A10
:101D4000396BF9623863786E401C786600F07DF973
:101D5000F86E84422AD31EE0281D00F0EBFBA86A2F
:101D6000002803D005F1180000F0E4FBE86A796D63
:101D70000122824011437965291DDFF8602500EBBF
:101D8000800302EB830000F0AFFBE86AB96AC96A1E
:101D9000884200D30126F86A0068002812D0F86A49
:101DA000C068C56868688442D6D2F866B86ADFF849
:101DB0002C15C06A00EB800290000858022808D356
:101DC000012606E04FF0FF30F866EFE7F86D401CA3
:101DD000F865386E002800D001263046F2BDDFF8E5
:101DE0007414486F002802D0012008667047002054
:101DF0000866486DB0FA80F0C0F11F0000EB800269
:101E00009200DFF84C349858002807D1502080F316
:101E10001188BFF34F8FBFF36F8FFEE798184268AA
:101E20005268426000F108039A4201D15268426050
:101E30004068C0688862704710B50C46002807D11A
:101E4000502080F31188BFF34F8FBFF36F8FFEE7F1
:101E5000DFF80014896A183100F052FB0121204696
:101E6000BDE8104000F006BA38B5C068C468002C60
:101E700007D1502080F31188BFF34F8FBFF36F8FCE
:101E8000FEE704F1180000F055FBDFF8C853686F57
:101E9000002812D1201D00F04DFBE06A696D01227F
:101EA000824011436965211DDFF8302400EB800377
:101EB00002EB830000F018FB04E004F1180128464F
:101EC00000F012FBA86AC06AE16A884203D20120CE
:101ED0000146296632BD002032BDDFF878134A6E14
:101EE0000260096D41607047F8B504460D46002C4C
:101EF00007D1502080F31188BFF34F8FBFF36F8F4E
:101F0000FEE7002D07D1502080F31188BFF34F8FDB
:101F1000BFF36F8FFEE700F082FBDFF83803016D3F
:101F200062688B1A2E6816F1010F01D1002413E0AC
:101F3000406E2768B84203D0914201D301240BE0E0
:101F4000B34206D2F31A2B602046FFF7C6FF0024E7
:101F500002E000202860012400F07AFB2046F2BD58
:101F60000120BC490866704780B500F034F8B848D5
:101F700000680228F9D34FF08050BD490860BFF3D4
:101F80004F8FBFF36F8FF0E738B5002407E0B048FC
:101F900004EB840100EB810000F096FA641C072C2E
:101FA000F5D3AC4C04F1780000F08EFA04F18C0506
:101FB000284600F089FA204600F086FA04F1140061
:101FC00000F082FA04F1380000F07EFA04F17800A3
:101FD000E062256331BD38B5DFF8044311E000F05D
:101FE0001EFB206AC568281D00F0A4FAE06C401EA4
:101FF000E064606B401E606300F02AFB284600F03E
:1020000004F8606B0028EAD131BD10B5044694F89D
:102010005100002808D1206B00F0D6F92046BDE819
:10202000104000F0D1B910BD012804D12046BDE810
:10203000104000F0C9B90228F5D0502080F3118873
:10204000BFF34F8FBFF36F8FFEE78249C86A006806
:10205000002803D14FF0FF30C8667047C86AC068D7
:10206000C0684068C8667047DFF87412886D002841
:1020700001D101207047486F002801D1022070472C
:1020800000207047F8B504460020002C40D0714D68
:10209000E16AAA6AD26A914234D2A069002804D4C3
:1020A000A86AC06AC0F10700A061DFF83062142797
:1020B00060697943314488421FD1201D00F03AFA0B
:1020C00000280CD1E16A07FB01F03058002806D146
:1020D000686D012202FA01F120EA01016965A86A2E
:1020E000C06AE062696D0122824011436965211D69
:1020F0004743F01900F0F8F902E0A86AC06AE0620C
:102100000120F2BD616CAA6AD26A914200D201201C
:10211000F2BDF8B504460021002C44D04D4DA86A0C
:10212000844207D0502080F31188BFF34F8FBFF354
:102130006F8FFEE7A06C002807D1502080F3118834
:10214000BFF34F8FBFF36F8FFEE7401EA064E26ABC
:10215000636C9A4227D0002825D11426DFF87C71C1
:10216000201D00F0E7F900280CD1E16A06FB01F020
:102170003858002806D1686D012202FA01F120EAE0
:1021800001016965606CE062C0F10700A061E06A6E
:10219000696D0122824011436965211D4643B819CA
:1021A00000F0A2F901210846F2BDF8B504004DD0B7
:1021B000A06C002807D1502080F31188BFF34F8F07
:1021C000BFF36F8FFEE7626C914200D21146E26A64
:1021D0008A423BD0012839D11E4DA86A844207D1DA
:1021E000502080F31188BFF34F8FBFF36F8FFEE74E
:1021F000E162A069002802D4C1F10701A161DFF802
:10220000DC60142760697A43B11888421ED1201D12
:1022100000F090F900280CD1E16A07FB01F030587A
:10222000002806D1686D012202FA01F120EA0101BD
:102230006965E06A696D0122824011436965211D6B
:102240004743F019BDE8F44000F04EB9F1BD00007D
:10225000C43D0020243D0020DFF88410886A002857
:1022600003D0886A826C521C8264886A70470000BE
:1022700004ED00E0F8B506460C46194D2F6DA86A2E
:10228000001D00F057F9002806D1A86A696D0122E7
:10229000C06A82409143696516F1010F09D1002C93
:1022A00007D0A86A011D05F13800BDE8F44000F030
:1022B0001BB9F619A86A4660BE42A86A05D2011D7C
:1022C000286BBDE8F44000F01BB9011DE86A00F07E
:1022D00017F9E86E864200D2EE66F1BDC43D0020DB
:1022E000243D002049444C4500000000F8B5044658
:1022F0000025FFF7A7FC734FB868002801D100F054
:1023000092F87869044238D1002C13D0083414F0C4
:10231000070F0FD004F1080004F00704041B14F0A9
:10232000070F07D0502080F31188BFF34F8FBFF302
:102330006F8FFEE7002C20D0F868A0421DD33946ED
:102340003E687068A04227D23068002824D0314609
:102350000646F6E7301D02517460084600F08AF820
:102360007168F868401AF8603A69904200D23861A2
:1023700078690143716000203060FFF769FC15F057
:10238000070007D0502080F31188BFF34F8FBFF3B1
:102390006F8FFEE72846F2BDB8688642EDD0086828
:1023A00008300546306808607268121B112AD7D3BE
:1023B000311911F00700CDD0502080F31188BFF300
:1023C0004F8FBFF36F8FFEE7002800D1704738B5FD
:1023D000A0F1080461683B4D6A69114207D15020A1
:1023E00080F31188BFF34F8FBFF36F8FFEE7206834
:1023F000002807D0502080F31188BFF34F8FBFF320
:102400006F8FFEE70ED191436160FFF71BFCE96817
:1024100060684118E960204600F02CF8BDE83140C2
:10242000FFF716BC31BD10B44FF42050254901F11F
:102430001802134601F1180414F0070F05D0D31D3C
:10244000DB08DB00C3F5205010180B6000224A6047
:10245000C0180838C008C000886042600260C21A14
:102460005A60186058680861C8604FF000404861C1
:1024700010BC704730B413490A4600E01A4613688E
:102480008342FBD35368D418844203D14068C318F5
:102490005360104643681468C518A5420BD189687B
:1024A0008C4206D06168CB184360116809680160EE
:1024B00002E0016000E00460824200D0106030BCA5
:1024C000704700006002002000F1080141604FF0F9
:1024D000FF31816000F10801C160016100210160EC
:1024E000704700210161704742684A6093688B60C1
:1024F00093685960916008610168491C01607047E8
:1025000030B40A6812F1010F01D1036907E000F14C
:10251000080300E023465C682568AA42FAD25A689C
:102520004A6091608B60596008610168491C0160D4
:1025300030BC70470169826843689A60426883686A
:102540005A604A68824201D182684A600022026170
:102550000868401E086008687047000010B4A0F1C9
:102560000C034FF080749C604908490059600FF2D9
:102570001101196040F8202D203810BC7047000070
:1025800050204749496811F1010F80F31188BFF3CA
:102590004F8FBFF36F8F00D0FEE7FEE71CB54148B9
:1025A00001780191FF21017001788DF800103C4CF9
:1025B0009DF8001001F0500121700721A16006E094
:1025C000491EA1609DF8001049008DF80010A16817
:1025D0009DF800201206F3D4C1F10702042A07D0A7
:1025E000502080F31188BFF34F8FBFF36F8FFEE74A
:1025F000090201F4E061A160019901702A480168B3
:1026000041F470010160016841F07041016000F027
:102610004FF80020606000F088FA002016BD5020BE
:1026200080F31188BFF34F8FBFF36F8F1C494A6847
:10263000521C4A60012A0AD11C490968090606D0C1
:1026400080F31188BFF34F8FBFF36F8FFEE77047A2
:1026500013494868002807D1502080F31188BFF340
:102660004F8FBFF36F8FFEE7401E486002D10020FE
:1026700080F31188704780B5502080F31188BFF334
:102680004F8FBFF36F8FFFF743FB002803D04FF04E
:10269000805006490860002080F3118801BD0000C9
:1026A0000C00002000E400E020ED00E004ED00E07C
:1026B0000748002101608160064909684FF47A7279
:1026C000B1FBF2F1491E416007210160704700BF74
:1026D00010E000E068000020BFF34F8FA6490A68B1
:1026E00002F4E062A54802430A60BFF34F8F00BFC7
:1026F000FDE7A34B036003F15400086080201060E5
:10270000704710B5AAB09F4C012000F0A3FA2060DA
:1027100023A80FF208311C22FEF736FE002123A861
:1027200000F0D3FC60601CA80FF20C311C22FEF7F5
:102730002BFE00211CA800F0C8FCA06015A80FF219
:1027400014311C22FEF720FE002115A800F0BDFC6C
:10275000E0600EA80FF218311C22FEF715FE0021D2
:102760000EA800F0B2FC206107A80FF220311C2255
:10277000FEF70AFE002107A800F0A7FC606168468A
:102780000FF224311C22FEF7FFFD0021684600F005
:102790009CFCA0612AB010BD00F0CEFC00F0FAFC59
:1027A000794C2021204600F0E7FD4FF4FA6000F05C
:1027B000BBFC8021204600F0D0FD0028F1D1012093
:1027C00080F3138800F094F8FFF786FF00BF4FF402
:1027D00080726E496E4800F0F5FD0024694D4FF09F
:1027E000FF31286800F0FFFA00F07EFE69480078AB
:1027F00006280BD9C01F03D0401E012806D914E0BB
:10280000200004D101F008F8012400E00024402158
:102810005D4800F0B1FD00231A461146286800F01B
:1028200024FAC82000F080FCD9E7FFF755FF00BF6D
:1028300010B501F0DBF880225749584800F0C2FD7E
:10284000504C4FF0FF31206800F0CDFA01F0DAF87B
:1028500000231A461146206800F007FAC82000F04D
:1028600063FCEEE780B5012000F05EFCFBE780B57D
:10287000C82000F059FCFBE770B594B0484C04A8A0
:1028800021464022FEF780FD464D474E41480078E4
:102890000028FBD101F0CAF94448C179039141797C
:1028A000029101790191C17800918378028804F145
:1028B000400104A801F00EFA04A8FEF71FFB02462F
:1028C0004FF4806392B204A9284601F052FA3046D0
:1028D000FEF714FB4FF48063024692B2314628465D
:1028E00001F047FA4FF47A7000F01EFCCEE70000CA
:1028F00038B52C4C2E4D2868400107D54FF4806325
:102900005FF00D022CA1204601F033FA2868000187
:1029100006D54FF4806311222BA1204601F029FA3D
:102920002868C00006D54FF4806309222BA12046F9
:1029300001F01FFA2868800006D54FF480630F224B
:1029400029A1204601F015FA2868400006D54FF469
:1029500080630F2228A1204601F00BFA2868002886
:1029600006D54FF48063132227A1204601F001FA17
:1029700001201049086031BD0CED00E00400FA05AB
:102980003835002020410020000801409C3A0020FA
:102990000C41002006410020503E00205C410020F8
:1029A0005CA50008A43C0020580000203C41002009
:1029B00024100240E0044242B8B4CEBBB0B4BCFC28
:1029C000B8B4CEBB0A000000B5CDD3DAB5E7D1B9B3
:1029D000E3D0D6B5B8B4CEBB0A000000C8EDBCFE4B
:1029E000B8B4CEBB0A000000C4DAD6C3BFB4C3C5B6
:1029F000B9B7B8B4CEBB0A00CDE2D6C3BFB4C3C525
:102A0000B9B7B8B4CEBB0A00B5CDB9A6BAC4B7C77A
:102A1000B7A8C4A3CABDB8B4CEBB0A0070A600084C
:102A2000992700080200000000000000800000005C
:102A3000000000000000000078A60008CF27000872
:102A40000300000000000000800000000000000003
:102A50000000000084A6000831280008FDFF0000E7
:102A600000000000800000000000000000000000E6
:102A700090A6000865280008FDFF00000000000087
:102A8000800000000000000000000000A0A6000878
:102A90006F280008FDFF000000000000800000001B
:102AA0000000000000000000ACA600087928000823
:102AB000FDFF00000000000080000000000000009A
:102AC00000000000EFF30980BFF36F8F1D4B1A6801
:102AD00020E9F00F106008B54FF0500080F3118826
:102AE000BFF34F8FBFF36F8FFFF779F94FF00000FF
:102AF00080F31188BDE8084019680868B0E8F00F55
:102B000080F30988BFF36F8F70470E4B1968086810
:102B1000B0E8F00F80F30988BFF36F8F4FF000002B
:102B200080F311884EF00D0E70470748006800686A
:102B300080F3088862B661B6BFF34F8FBFF36F8F23
:102B400000DF00004C3D002008ED00E038B50446F1
:102B50000D46002C07D1502080F31188BFF34F8F12
:102B6000BFF36F8FFEE7FFF75AFD2168E26B206C21
:102B70004243881860600020A0632068A06021683C
:102B8000E26B521E206C42438818E06004F144005E
:102B90004FF0FF3101704170002D12D120690028E3
:102BA00017D004F11000FFF75FF9002811D04FF0A3
:102BB0008050DFF8F8140860BFF34F8FBFF36F8FBA
:102BC00007E004F11000FFF77FFC04F12400FFF799
:102BD0007BFCFFF73DFD012032BDF8B506460D46F2
:102BE0001746002E07D1502080F31188BFF34F8F76
:102BF000BFF36F8FFEE7002D01D1002001E005FB40
:102C000006F04830FFF772FB04000AD0002084F879
:102C1000460000943B4604F148022946304600F045
:102C200002F82046F2BD82B0029B002901D11B6050
:102C300000E01A60D86319640121184602B085E7E4
:102C4000002806D0002141600160C1600B460A46A1
:102C50000BE0704710B5024600210120FFF7BDFFD1
:102C60000446FFF7EDFF204610BDF7B505460E46BA
:102C70001F460024002D07D1502080F31188BFF398
:102C80004F8FBFF36F8FFEE7002E04D1286C401EDC
:102C90008041C00F00E00120002807D1502080F3C0
:102CA0001188BFF34F8FBFF36F8FFEE7022F02D162
:102CB000E86B012801D1012000E02046002807D15F
:102CC000502080F31188BFF34F8FBFF36F8FFEE763
:102CD000FFF7CAF9002804D10298401E8041C00FB6
:102CE00000E0012000281CD1502080F31188BFF3A0
:102CF0004F8FBFF36F8FFEE7029905F11000FFF7CA
:102D00009BF8284600F07EF9FEF7A2FF002808D1C4
:102D10004FF08050DFF894130860BFF34F8FBFF37C
:102D20006F8FFFF77CFCA86BE96B884246D3022FBC
:102D300044D0029800283DD0002C03D16846FFF70C
:102D4000CCF80124FFF784FCFEF77CFFFFF767FC5B
:102D500005F1440090F9001011F1010F01D100219B
:102D6000017090F9011011F1010F01D100214170A2
:102D7000FFF76EFC02A96846FFF7B6F80028284660
:102D80002BD100F084F90028B6D1284600F03AF99A
:102D9000FEF75EFFC5E7002808D04FF08050DFF84F
:102DA0000C130860BFF34F8FBFF36F8FFFF750FC1A
:102DB0000120FEBDFFF74CFC0020FEBD3A46314627
:102DC000284600F0E5F8696A0029E4D005F12400FE
:102DD000FFF74AF80028E0D1E8E700F013F9FEF722
:102DE00037FF0020FEBD73B582B00646002425469D
:102DF000002E07D1502080F31188BFF34F8FBFF30F
:102E00006F8FFEE7306C002807D0502080F31188C8
:102E1000BFF34F8FBFF36F8FFEE7FFF725F9002851
:102E200004D10398401E8041C00F00E0012000281B
:102E30000CD1502080F31188BFF34F8FBFF36F8FF9
:102E4000FEE7304600F0DEF8FEF702FFFFF7E7FB93
:102E5000B06B00280CD1039800282BD1002D25D071
:102E6000502080F31188BFF34F8FBFF36F8FFEE7C1
:102E7000401EB0633068002802D1FFF7EDF97060A2
:102E8000306900280ED006F11000FEF7EDFF002893
:102E900008D04FF08050DFF814120860BFF34F8F56
:102EA000BFF36F8FFFF7D4FB012065E0FFF7D0FB86
:102EB000002061E0002C03D16846FFF70EF80124E2
:102EC000FFF7C6FBFEF7BEFEFFF7A9FB06F14400C5
:102ED00090F9001011F1010F01D10021017090F95A
:102EE000011011F1010F01D100214170FFF7B0FB7A
:102EF00003A96846FEF7F8FF0028304624D100F009
:102F0000BAF800289DD03068002807D1FFF787FB6A
:102F10007068FFF7B7F80546FFF79AFB039906F1CB
:102F20002400FEF789FF304600F06CF8FEF790FEB3
:102F300000288BD14FF08050DFF870110860BFF38C
:102F40004F8FBFF36F8F81E700F05CF8FEF780FED4
:102F5000304600F090F800283FF478AF002D0AD0FA
:102F6000FFF75DFB304600F009F801467068FFF797
:102F70001CF9FFF76DFB002004B070BD416A002909
:102F800004D0006B0068C0F1070070470020704754
:102F9000F8B5064615460027B46B326C002A09D1F5
:102FA000306800282AD17068FFF7B3F80746002080
:102FB000706023E0002D0CD1B068FEF7D5F9B06841
:102FC000316C0844B0607168884217D33068B060D3
:102FD00014E0F068FEF7C8F9F068316C4942084423
:102FE000F0603168884204D27068316C494208440C
:102FF000F060022D02D1002C00D0641E641CB4636A
:103000003846F2BDF8B50546FFF709FB05F1440463
:1030100094F90160304640B2012819DB686A002843
:1030200016D005F12400FEF71FFF002801D0FEF79F
:1030300097FF761EEEE72869002817D005F11000EB
:10304000FEF712FF002801D0FEF78AFF7F1E09E07D
:103050004FF0FF3006466670FFF7FAFAFFF7DFFA27
:1030600094F90070384640B20128E4DA2670BDE8D1
:10307000F140FFF7EDBA10B50446FFF7D0FAA06BA8
:10308000441EA441E40FFFF7E3FA204610BD10B53B
:103090000446FFF7C4FAA06BE16B884201D101241A
:1030A00000E00024FFF7D4FA204610BD04ED00E054
:1030B000014600200A46842A01D0C91C08467047F0
:1030C00080B5FEF78BFD002002BD38B584B0044604
:1030D0000D466069002815D0A069002812D0B4F907
:1030E0000800FFF7E5FFA169029161690191009075
:1030F0002B46226921686068FEF746FC039003981E
:1031000005B030BDB4F90800FFF7D2FF03A9019163
:1031100000902B46226992B221686068FEF771FC2C
:103120000128ECD00020EBE780B5002800D1012079
:10313000FEF72EFD002002BD10B5124C00221249F0
:10314000204601F08BF9002801D001F0D5FB0F4992
:10315000204601F099F9002801D001F0CDFB0C497F
:10316000204601F0E9FC002801D001F0C5FB204613
:1031700001F093F9002803D0BDE8104001F0BCBB7A
:1031800010BD00BF982D00206C000020BC00002066
:103190006001002010B5034C211D034801F0F0FC34
:1031A000207010BD7C41002080010020F8B502464F
:1031B000002425460CE026EA0303C36007E09E4393
:1031C00086604E68B602C668F5D53343C360641C9A
:1031D0000B681846E04000F0BF800126A64033404F
:1031E000B342F4D14868002827D001281AD0022819
:1031F0001DD003282ED0112816D012281AD0624FC5
:10320000B8421AD0614FB84217D0614FB84214D0BB
:10321000604FB84211D0604FB8420ED05F4FB842F5
:103220000BD018E0CD6816E0CD682D1D13E0CD68F9
:10323000083510E0CD680C350DE08868002801D114
:10324000042508E0012802D10825166103E00825BD
:10325000566100E00025B3F5807F01D2164600E0FC
:10326000161DB3F5807F01D2A70002E0A4F1080784
:10327000BF000F20D6F800C000FA07FE2CEA0E0CA3
:1032800005FA07F747EA0C0737604E68F6009ED547
:10329000434E376847F001073760366806F001068D
:1032A0000096009E2646B6083E4F57F826E04FEAA5
:1032B000840C0CF00C0C00FA0CF02EEA0000DFF885
:1032C000E8E0724502D14FF0000E24E0DFF8DCE0C8
:1032D000724502D14FF0010E1DE0DFF8D4E07245D7
:1032E00002D14FF0020E16E0DFF8C8E0724502D1BD
:1032F0004FF0030E0FE0DFF8C0E0724502D14FF04F
:10330000040E08E0DFF8B4E0724502D14FF0050E7C
:1033100001E04FF0060E0EFA0CFC4CEA000047F8F4
:10332000260027484E68F603066802D51E4306604D
:1033300001E09E4306604E68B603466802D51E4310
:10334000466001E09E4346604E68F60286687FF55F
:1033500036AF1E43866034E7F1BD80680140084601
:10336000401E8041C043C00F7047002A01D0016158
:103370007047090401617047C2680A4201D0416187
:10338000704701617047000000001110000012102A
:103390000000211000002210000031100000321047
:1033A000181002400800014000080140000C0140D4
:1033B000001001400014014000180140001C0140B1
:1033C0000004014010B504461000606002D0421EA7
:1033D000104201D0002010BD002901D1002010BDF5
:1033E000216000220146206801F0CEFB0020E06051
:1033F000A060012010BDF8B504460D4616460096A3
:10340000A3686768761C39461846091AE0684118AF
:103410008E4200D90E46781E0340FF1ABE4200D2EB
:1034200037460122694620681844FDF79DFF7A1E41
:1034300029462068A368D4F804C0ACF1010C0CEA5A
:1034400003031844401CFDF78FFFF21BE819411ECF
:103450002068FDF789FFA0683018A0603046F2BDF3
:10346000F8B504460E461546E168A068401A854244
:1034700000D305466768781E01407F1ABD4200D21E
:103480002F463A46206801443046FDF76DFFEA1B9F
:103490002168F019FDF768FFE0682818E060284609
:1034A000F2BDF8B504460E461546A3686768F91ADA
:1034B000E06841188D4200D30D46781E0340FF1A84
:1034C000BD4200D22F463A46314620681844FDF7E7
:1034D0004BFFEA1BF1192068FDF746FFA06828188A
:1034E000A0602846F2BD00001CB500208DF8000049
:1034F000DFF8B443207C00285FD10122694604F143
:103500001400FFF7ADFF08E00122694604F1140042
:10351000FFF7A6FF6420FFF707FE9DF800000A28CA
:10352000F2DA0028F0D00246214604F11400FFF739
:1035300097FF2178FF290BD06078EE2808D0A0787B
:10354000002805D1662903D0862901D01A2912D175
:10355000A078082812D10621204601F09BF960824C
:103560002073000A6073207BA179884206D0607BBB
:10357000E179884202D04FF0FF3016BD20788628CE
:1035800004D1012020744FF0FF3016BD662801D011
:103590001A2814D1A078FF280FD1E078FF280CD189
:1035A0002079FF2809D1607801460D2905DAA17B31
:1035B000814202D0A17BE173A073002016BDE078A8
:1035C000012804D0032806D0042808D01EE0607922
:1035D00000F022F81AE0E07B00F01EF816E001226D
:1035E000694604F11400FFF73BFF9DF80000002836
:1035F0000CD00A280ADC0246A11D04F11400FFF7D2
:103600002FFFA21D6179207900F030F800220A21F5
:10361000204601F0EDFAD0E73EB5024668460021AB
:103620000B460C4680E81A000FF28C2100F052FB8A
:103630006846FDF763FCDFF874424FF4806302468E
:1036400092B26946204600F094FBDFF8645205F11F
:103650004000FDF753FC4FF48063024692B205F13F
:103660004001204600F085FB00203EBDF8B507462E
:103670000D461446204601F079FB0646B6B22046B8
:1036800001F078FD01F07AFD062F02D0092F6ED0EF
:10369000C0E06D1E062D00F2BD80DFE805F00412CB
:1036A0001C2633404C0032460FF21421804800F0B3
:1036B00011FB0220FFF738FD3046C0B200F004FADB
:1036C000A8E032460FF20C21794800F003FB0220FB
:1036D000FFF72AFD9EE032460FF20C21744800F0FD
:1036E000F9FA0220FFF720FD94E001F07BFD02468D
:1036F0000B460FF208216E4800F0ECFA0220FFF7AB
:1037000013FD87E001F06EFD02460B460FF2082123
:10371000674800F0DFFA0220FFF706FD7AE0324644
:103720000FF21021624800F0D5FA002C72D002206E
:10373000FFF7FAFC6EE05E4C32460FF2182120468D
:1037400000F0C8FA1420FFF7EFFC584D4FF48063E7
:103750000B220FF22021284600F00BFB4FF4806370
:10376000032204F14001284600F003FB52E06D1EE5
:10377000042D4FD8DFE805F0030C151E2700324654
:103780000FF2FC114A4800F0A5FA4A48068041E0D1
:1037900032460FF2FC11464800F09CFA454886700C
:1037A00038E032460FF2F811414800F093FA4148F0
:1037B000C6702FE032460FF2F4113D4800F08AFA4D
:1037C0003C48067126E03A4C32460FF2F011204692
:1037D00000F080FA374D6E7100226979287900F087
:1037E000B7F92B883033DBB2EA78A978002000F0F3
:1037F000C0F92E4D4FF480635FF00B0272A1284692
:1038000000F0B7FA4FF48063032204F14001284628
:1038100000F0AFFA0020F2BD2DE9F04101F016FDF5
:10382000044601F016FD054601F016FD0646204F40
:103830000FF2A01823460822414607F1180000F0B5
:1038400049FA2B460822414607F1200000F042FACF
:1038500033460822414607F1280000F03BFA0A20CF
:10386000FFF762FC07F118025CA1384600F032FA5B
:103870003846FDF743FB02460C4C4FF4806392B28E
:103880003946204600F075FA07F14000FDF736FB97
:103890004FF48063024692B207F140012046BDE832
:1038A000F04100F066BA0000F8400020A43C00207F
:1038B000180000203C4100207061676520256400ED
:1038C000736574206368616E6E656C207061723A16
:1038D00025640A006E6F6465206164647220706103
:1038E000723A25640A0000007363616E6620637992
:1038F000636C65207061723A25640A0074656D70AE
:10390000207570706572206C696D697420706172C9
:103910003A252E31660A000074656D70206C6F7751
:103920006572206C696D6974207061723A252E3160
:10393000660A0000616C6C6F7765642074686520AE
:1039400074696D656F7574207061723A2564206DBD
:10395000696E0A00616C6C6F77656420746865201D
:1039600074696D656F7574206E756D207061723A43
:1039700025640A00703630342E7069633D36380095
:1039800073657420796561723A25640A000000004D
:10399000736574206D6F6E74683A25640A000000C8
:1039A000736574206461793A25640A007365742034
:1039B000686F75723A25640A000000007365742010
:1039C0006D696E3A25640A00703930322E70696371
:1039D0003D36380025302A6C78000000717237308F
:1039E000302E7478743D2225732200000020024698
:1039F0003E4B02E009015A54401C0146C9B232292B
:103A0000F8DB7047F8B584B00024254601A82146AC
:103A10000A460B4680E80E0008468DF80000344E3A
:103A200001226946301DFFF71BFD9DF8002001A90A
:103A3000301DFFF715FD01AF9DF80400FF2805D0EC
:103A40007878022802D0B878002810D0B8780A28F0
:103A500037D1082101A800F01DFF01469DF80D2077
:103A6000C9B2914208D0000A397A884204D04FF096
:103A7000FF3027E06D1CEDB21C4800EB05103178DB
:103A80000A46AA420DDB02789DF809309A42F1D12C
:103A9000224642600273C27282723A790281012226
:103AA0001446002202708272C27202733A79028155
:103AB00000224260012C04D00846322801D2491C61
:103AC0003170002005B0F0BD10B50A4CE070042143
:103AD000204600F0DFFE0146090A217160710622CE
:103AE0002146054800F0D9F9002010BD782A0020B1
:103AF0005841002000000020E03B002080B57048C5
:103B0000704981604FF0FF31C1604FF480710161F5
:103B1000083001F0ADFB002803D0BDE8014000F003
:103B2000EBBE01BD00686749884200D0704780B590
:103B300001F0ACFE6448016841F00061016000687A
:103B400000F000600090009801206049086001BD0D
:103B500080B58DF800008DF801108DF8022000224C
:103B600069465B4801F0DAFB002801D000F0C4FE92
:103B700001BDF8B504460D4616468DF800408DF897
:103B800001508DF802608DF803304D4F1A46012127
:103B900007F1080001F080FE2A46022107F1080023
:103BA00001F07AFE3246032107F1080001F074FEAD
:103BB0002246042107F1080001F06EFE002269464A
:103BC00007F1080001F06EFC002801D000F094FE1F
:103BD000F1BD1CB53A4C012104F1080001F062FE70
:103BE000208020888DF80300022104F1080001F0F4
:103BF00059FEA070A0788DF80100032104F108009F
:103C000001F050FEE070E0788DF80200042104F12C
:103C1000080001F047FEA071A0798DF80000002295
:103C2000694604F1080001F03DFC13BD1CB5244CAD
:103C3000002201A904F1080001F0C6FB00283BD1D5
:103C40000022694604F1080001F089FC002833D104
:103C50009DF80320104600F5FA6020809DF80100D1
:103C6000A0709DF80200E0709DF8040020719DF89E
:103C7000050060719DF80000A0719DF80600E071DC
:103C8000012104F1080001F007FE9DF80120022146
:103C900004F1080001F000FE9DF80220032104F168
:103CA000080001F0F9FD9DF80020042104F108004E
:103CB00001F0F2FD002016BD4FF0FF3016BD0000F0
:103CC0003C410020002800401C1002403C044242BD
:103CD000444100200CB430B583B00A4606A90291D5
:103CE000044600250194009502AB01A908487844D8
:103CF0001E30FCF71DFA019A157000284EBF0446CD
:103D00000198041B204603B030BC5DF80CFB00BFDB
:103D100023D2FFFF38B5040001D1012032BD04F1E8
:103D200038056878002804D100202870204601F06A
:103D30002FFE242068702068C16821F40051C16002
:103D4000204600F02FFB2068016921F490410161B9
:103D50002068416921F02A0141612068C16841F46D
:103D60000051C1600020686020206870A8700020A9
:103D700032BD2DE9F84305460C4690461E4605F136
:103D80003807787820284AD1002C02D040460028F5
:103D900001D1012044E03878012840D0012038705A
:103DA000002078602120787002F026F88146A5F87E
:103DB0002480A5F8268003E014F8010B29684860E8
:103DC000E88C00282ED0E88C401EE884A868B0F566
:103DD000805F00964B4614D100228021284600F0D7
:103DE00006FA002801D003201AE02088C0F308005A
:103DF000296848602869002801D1A41CE0E7641CF8
:103E0000DEE700228021284600F0F1F90028D3D017
:103E1000032005E0202078700020387000E00220A8
:103E2000BDE8F28300964B4600224021284600F070
:103E3000DEF90028EED00320F2E710B400F13803D9
:103E40009C78202C26D1002901D0140001D101201A
:103E500021E01C78012C01D102201CE001241C70FF
:103E600081628285C28500215960222199700021DA
:103E700019700168CA6842F48072CA6001684A69B0
:103E800042F001024A610068C16841F02001C1604E
:103E9000002000E0022010BC704738B504461346ED
:103EA00004F138056878202834D1002901D01800A1
:103EB00001D1012032BD2878012801D1022032BD74
:103EC000012028702162A384E384002068602120FF
:103ED00068700FF25120226B90620FF27520226BF6
:103EE000D0620FF2B520226B10630020226B50636A
:103EF0002068021D206B01F0C9FF6FF040002168AF
:103F00000860002028702068416941F0800141610B
:103F1000002032BD022032BD38B50446134604F1FC
:103F20003805A878202842D1002901D0180001D1F5
:103F3000012032BD2878012801D1022032BD0120A4
:103F40002870A162A385002068602220A8700FF26B
:103F50000920626B90620FF23920626BD0620FF21F
:103F60003920626B10630020626B50630A46206840
:103F7000011D606B01F08AFF00200090206801683D
:103F80000091406800900098002028702068C16867
:103F900041F48071C1602068416941F001014161D3
:103FA0002068416941F040014161002032BD02209A
:103FB00032BD38B5044621684869C00900F00100E7
:103FC00004F139052A78212A0DD100280BD048693F
:103FD00020F080004861206B002801D001F092FFA2
:103FE000204600F037F921684869800900F0010097
:103FF0006A78222A0DD100280BD0486920F04000B1
:104000004861606B002801D001F07CFF204600F081
:104010002AF9002032BD38B5044620680168C2681C
:10402000436911F00F0007D18D0605D5950603D51C
:104030002046BDE8324069E1002861D0D80702D4AB
:1040400012F4907F5CD00846C00705D5D00503D593
:10405000E06B40F00100E063480706D51846C00752
:1040600003D5E06B40F00200E063880706D51846F0
:10407000C00703D5E06B40F00400E063080705D5F6
:10408000D80703D5E06B40F00800E063E06B002840
:1040900046D0880604D5900602D5204600F036F9B1
:1040A00020684069800900F00100E16B090701D434
:1040B00000281FD0204600F0D6F820684169490644
:1040C00013D5416921F040014161606B00280CD09B
:1040D0000FF2B1114163606B01F038FF00281FD06F
:1040E000606B416BBDE8344008472046BDE8324074
:1040F00002F0C1B8204602F0BEF80020E06331BDF6
:10410000080605D5100603D52046BDE83240BFE0BD
:10411000480605D5500603D52046BDE83240E8E004
:1041200031BD0000416A0068006880060CD40020A0
:10413000C8840868426922F0800242610868C16848
:1041400041F04001C1607047084602F095B8000098
:10415000406A02F092B80000416A00680068800678
:1041600013D40020C8850868C26822F48072C26037
:10417000086842695208520042610868426922F0A8
:1041800040024261202081F83A00084602F076B8E9
:10419000406A02F074B8000038B5446A206840698B
:1041A000C00900F0010004F139052978212906D160
:1041B000002804D00020E084204600F04BF820685E
:1041C0004069800900F001006978222906D10028A1
:1041D00004D00020E085204600F045F8E06B40F078
:1041E0001000E0632046BDE8324002F044B82DE9FB
:1041F000F04105460E4617469846069C286800681A
:104200003040B04201D1012000E000203946884210
:104210001DD114F1010FF1D0002C05D001F0ECFDFF
:10422000A0EB08008442E9D22868C16821F4D0716B
:10423000C1602868416949084900416105F13800B9
:1042400020214170817000210170032000E00020D6
:10425000BDE8F0810168CA6822F0C002CA6020216E
:1042600080F8391070470168CA6822F49072CA60F9
:1042700001684A69520852004A61202180F83A10C8
:1042800070470000406A0021C185C18401F0F3BF7E
:1042900090F8391021292AD1016A8268B2F5805F2D
:1042A0000ED10988C1F3080102685160026A0169F0
:1042B000002902D1911C016207E0511C016204E057
:1042C0004A1C0262097802685160C18C491EC1848F
:1042D00089B2002909D10168CA6822F08002CA6047
:1042E0000068C16841F04001C160002070470220B1
:1042F000704780B50168CA6822F04002CA60202178
:1043000080F8391001F0B8FF002002BD80B590F8A8
:104310003A10222944D10169826A8368B3F5805F2B
:1043200011D103680029596806D1C1F30801118031
:10433000816A891C816215E001F0FF011180816AA8
:10434000491C81620EE0002905D1511C816201687F
:104350004968117006E0511C81620168496801F0EA
:104360007F011170C18D491EC18589B2002915D107
:104370000168CA6822F02002CA600168CA6822F493
:104380008072CA6001684A69520852004A6120215D
:1043900080F83A1001F072FF002002BD002002BD3B
:1043A000022002BD70B5044621680A6922F4405219
:1043B000E06802430A612168CA6826480240A06892
:1043C00002432069024360690243CA6021684A6966
:1043D00022F44072A06902434A61642519262068CC
:1043E0001D4988421AD102F0A8F94643606880004E
:1043F000B6FBF0F02946B0FBF1F105FB11052D01EC
:1044000032356420B5FBF0F000F0F00202EB01124F
:1044100000F00F0080182168886070BD02F082F9FA
:10442000464360688000B6FBF0F02946B0FBF1F12E
:1044300005FB11052D0132356420B5FBF0F000F0CD
:10444000F00202EB011200F00F0080182168886072
:1044500070BD0000F3E9FFFF0038014010B50028EF
:1044600001D1022010BD00F52774A369002B01D0F3
:104470000023A361002900D0616101212170027035
:1044800002F010FA002010BD02460020002902D0E0
:10449000C2F8B41270470220704780B502F037FAB4
:1044A000002002BD0020704710B50224D0F8B422CD
:1044B000002A04D012689047002800D1002420462A
:1044C00010BD80B5D0F8B42252689047002002BDDC
:1044D00038B5044604F52A75284602F00AFD04F5AD
:1044E000257001210160418B4160017D084610F07B
:1044F0001F0003D002280BD005D30EE0294620462A
:1045000002F07CFA0EE02946204602F0A8FA09E003
:104510002946204602F0CAFA04E001F08001204654
:1045200002F018FA002032BD38B50446104604F5F2
:1045300025730A002BD1196803291FD104F5B07126
:104540004A680D68AA420CD2AA1A0A6049688A42CF
:1045500000D30A4692B20146204602F029FD00200F
:1045600032BD186A0169002904D0187A032801D1E4
:1045700020468847204602F023FDF0E70529EED1CA
:10458000002018600146204602F0E4F9E7E7186AC7
:104590008269002A05D0187A032802D12046904764
:1045A000DDE7022032BD38B50446134604F5257513
:1045B000080051D1286802283CD1226A616A9142E0
:1045C0000DD2521A226292B21946204602F0E8FC3D
:1045D00000231A461146204602F0EBF932E0E26968
:1045E000B2FBF1F001FB1020002812D18A4210D357
:1045F000686882420DD200221146204602F0D0FCAB
:1046000000206860034602460146204602F0D1F9C8
:1046100018E0286AC168002904D0287A032801D14B
:10462000204688478021204602F094F9204602F077
:10463000D2FC07E0042801D0002803D180212046C5
:1046400002F088F9287B012804D12046FFF72AFFD1
:1046500000202873002032BD286A4269002A05D054
:10466000287A032802D120469047F3E7022032BD82
:1046700010B5044640230022114602F050F904F51B
:10468000AC70012101604021C1600B4600228021F5
:10469000204602F044F90120A0614020606204F548
:1046A0002572012010720020106060601061506A55
:1046B000002805D06168C9B22046126A5268904746
:1046C000002010BD01740020704700F527700178AC
:1046D0004170042101700020704700F527700178B7
:1046E000042901D1417801700020704780B500F5A0
:1046F00027710A78032A04D18969C969002900D081
:104700008847002002BD000038B500F08FFD00F0A2
:104710005FF802F06BFC02F0E1FCFFF7EFF901F04B
:10472000E4F801F0FEF801F018F901F0C3F802F026
:1047300015FD02F07BFDFEF7FFFCFEF72BFD46F2B8
:104740006604634D0521284601F0ACF8A04210D064
:1047500028221B210920FFF7FBF913231B220A2122
:104760000020FFF706FA22460521284601F094F8BA
:1047700001E0FFF72EFA57480168CA6842F01002BC
:10478000CA6040225449FFF7C7FB54480168CA6811
:1047900042F01002CA6040225149FFF7BDFB514868
:1047A0000168CA6842F01002CA6040224E49FFF711
:1047B000B3FB4E480168CA6842F01002CA6040224A
:1047C0004B49FFF73AFBFDF79CFFFEF779FCFEE74C
:1047D00000B595B005A8282102F072FD68461421A5
:1047E00002F06EFD0FA8182102F06AFD0D20059061
:1047F0004FF4803006900021079101210891099122
:104800000B9102210C910D904FF4E0100E9005A831
:1048100001F036FD002801D000F06EF80F20009066
:1048200002200190002002904FF48060039000204D
:1048300004900221684601F0C4FE002801D000F077
:104840005BF811200F904FF48070109000201490AE
:104850000FA802F039FD002801D000F04DF801F05A
:104860003EFF15B000BD30B4400080B208231C46A6
:10487000A4B2002C0BD0400814466408054692B23E
:104880006A40D207224600D54A405B1EEFE7104639
:1048900030BC704770B504460D464FF6FF720026D7
:1048A00008E04AF20101304680B2205CFFF7DBFFEE
:1048B0000246761C3046294680B28842F1D3104623
:1048C00070BD00680B49884201D102F0DFBD70471E
:1048D00044410020E03B0020203C0020A43C00207C
:1048E000E43C0020B8400020F83F00207840002041
:1048F00038400020002C01407047000010B50446ED
:10490000207C002813D14FF400730222012120469D
:1049100002F005F80120C4F86C014FF40073022284
:104920008121204601F0FBFF0120E06210E04023DE
:1049300002220121204601F0F2FF0120C4F86C019F
:10494000402302228121204601F0E9FF0120E0629C
:104950004FF41B7002F039F8C4F8B802002801D1F6
:10496000022010BD204602F099FD002010BD10B5B8
:104970000446012101F0DEFF0020C4F86C01812112
:10498000204601F0D7FF0020E062204602F0B5FD8E
:10499000D4F8B802002804D002F024F80020C4F8AB
:1049A000B802002010BDF8B504460D4604F5277185
:1049B000CF6900263046ADF800002A78104610F086
:1049C000600028D0202840F08E806878FE2802D031
:1049D000FF2814D087E06888002840F08480E888A9
:1049E000012840F0808010067DD5086A80698047E4
:1049F000386001223946204602F0C4FA78E068881F
:104A0000002870D1E88800286DD110066BD42046AC
:104A100002F067FD6CE06878002806D001281CD001
:104A20000A280BD00B2812D05DE0087803285AD151
:104A300002226946204602F0A5FA59E008780328C8
:104A400051D10122391D204602F09CFA50E008782D
:104A5000032848D1A87878604AE0A988C9B22046DE
:104A600001F070FFA988C9B2204601F063FFA88851
:104A7000014601F00F0101EB810204EB8201000607
:104A8000304614D58861207C002807D14FF400738C
:104A900002228121204601F042FF05E0402302224C
:104AA0008121204601F03BFF0120E06215E0C1F8C2
:104AB0005801207C002807D14FF400730222012105
:104AC000204601F02CFF05E0402302220121204670
:104AD00001F025FF0120C4F86C01A988C9B2204665
:104AE00002F0FFFD04E02946204602F016FA0226F5
:104AF0003046F2BD80B502F005FD002002BD80B554
:104B000002F01FFD002002BD2021018006487047F1
:104B1000202101800548704720210180044870470A
:104B20000A21018003487047F4000020140100208E
:104B30003401002054010020002901D0C0F8BC122B
:104B40000020704730B4034601200E4C657A012DD9
:104B500014DC0020657A6055607A04EB80004360C5
:104B6000607A20440272607A421C627230300870AF
:104B70003A2048702F2088700020C87030BC7047E1
:104B80000022DFE77041002062F30F2262F31F4230
:104B9000401810F0030308D0C91A1FD3DB0748BF21
:104BA00000F8012D28BF20F8022D130030B4144660
:104BB0001546103928BF20E93C00FAD8490728BF1C
:104BC00020E90C0048BF40F8042D890028BF20F8D8
:104BD000022D48BF00F8012D30BC7047C91818BF1E
:104BE00000F8012DCB0728BF00F8012D7047000009
:104BF00062F30F2262F31F4200B500BF1300964616
:104C00009446103928BFA0E80C50FAD85FEA417CDE
:104C100028BF0CC048BF40F8042BC90728BF20F8A4
:104C2000022B48BF00F8012B00BD00002DE9F84F12
:104C300084B00E4617460BB100221A600446A04607
:104C400001E008F1010898F8000002F05EFD00287C
:104C5000F7D198F800002D2816BF2B2818F8015B13
:104C60002B25002F019603D4012F01D0252F03DB24
:104C7000002E55D0346053E0002F0CDD102F04BF00
:104C800098F80000302802BF98F8010040F020009A
:104C9000782811D10CE098F80000302818BF0A27B6
:104CA0000AD198F8010040F02000782803D110279D
:104CB00008F1020800E00827CDF80C8001E008F1B7
:104CC000010898F800003028F9D0064E7E441436CA
:104CD0004FF0000906F12800CDF80880CA468DF88B
:104CE00000000BE03C5900009DF80010401ACA4635
:104CF0005FFA80FB07FB09B908F1010898F800008A
:104D000002F00DFD01463A4606F12800FCF716F9BF
:104D10000028E9D10399414504D1019800B104600C
:104D2000002020E00299F05DA8EB0101081A00289C
:104D300010D406DCB9EB0B0103D3B1FBF7F05045FF
:104D400008D0AFF30080049808B1012101604FF052
:104D5000FF3903E02D2D08BFC9F10009019808B102
:104D6000C0F80080484605B0BDE8F08FFFE700239B
:104D70000A2200215AE700007CB51D4621F00043BD
:104D80001446B3F5801F20F0000209D20026002B44
:104D900008BF002A00960ED06A46FCF739FB0AE0ED
:104DA000DFF8A46306EB13520092DFF8A033DFF8BC
:104DB000A0231140194322462B46FCF703FA0B4669
:104DC0005A00009C520DA4183AB1002C05DD40F2A7
:104DD000FF72944200DB4AE044E020F0000231F030
:104DE00000430EBF002A009A02F0A4FC7CBD7CB5F3
:104DF0001D4621F000431446B3F5801F20F0000249
:104E000009D20026002B08BF002A00960ED06A4661
:104E1000FCF7FEFA0AE0DFF8306306EB135200926B
:104E2000DFF82833DFF828231140194322462B46A8
:104E3000FCF726FB0B465A00009C520DA4183AB111
:104E4000002C05DD40F2FF72944200DB0FE009E028
:104E500020F0000231F000430EBF002A009A02F059
:104E600069FC7CBD6FF31E5343EA04517CBDB94B12
:104E700001F0004040EA030100207CBD2DE9F84C20
:104E8000002A82468B461F4600F0AE802AF00004BE
:104E90003BF0004508BF002C00F0A68048004015FC
:104EA000401C02D1090300F09F800020002AAA497B
:104EB00014D552424E4E7E4406F59B760825144684
:104EC000002C18BF002D4CD0E20744BFD6E90023C8
:104ED000FCF778F9640808366D1EF1E76EDD444E84
:104EE0007E4406F5867608241546EA0744BFD6E9CF
:104EF0000023FCF767F96D100836641E002D01DDF4
:104F0000002CF2D102460B4650465946FFF734FFBB
:104F100082468B462AF000023BF0004308BF002A7D
:104F20002C464BD048004015401C01D1090345D008
:104F3000002C43DD50465946884A894BFFF71CFF39
:104F400020F0000231F0004308BF002A34D04A00AC
:104F50005215521C01D10B032ED0641E002CEBDC29
:104F60002AE002460B4650465946FFF740FF82466C
:104F70008B462AF000023BF0004308BF002A1DD0F8
:104F800048004015401C01D1090317D0B4B1504668
:104F90005946744A744BFFF7EFFE20F0000231F0DF
:104FA000004308BF002A07D04A005215521C01D105
:104FB0000B0301D0641EECD182468B462AF000021E
:104FC0003BF0004308BF002A07D04FEA4B004015D2
:104FD000401C08BF5FEA0B3106D1AFF300801FB160
:104FE000386840F00100386050465946BDE8F48CFE
:104FF000C85600002DE9F94987B01F001CBF0020EA
:105000003860079E0C46154607A802F030FCC21017
:1050100020F0080002F001020128059204952FD12A
:105020000220009001AB07992246304602F0B0FC06
:10503000040002D1002000211DE0029802F08AFD48
:10504000022C18DB0DF10C08661EDFF820B10246B9
:105050000B4600205946FCF7B5F8044658F8040BF7
:105060000D4602F077FD22462B46FCF7C5FB761E67
:1050700002460B46EDD1049A019C3B46A2184BE038
:1050800002284CD1009001AB07992246304602F02D
:1050900073FD040002D10020002119E0029802F003
:1050A00059FD022C14DB0DF10C08661EDFF8C0B0B0
:1050B00000225B46FCF786F8044658F8040B0D46C0
:1050C00002F048FD22462B46FCF796FB761EEFD1F8
:1050D000019B0C466200520D03EB020511D0002D1E
:1050E0000FDD40F2FF72954206DB1A4B01F00040E3
:1050F00040EA030100200DE06FF31E5444EA05511D
:1051000008E020F0000431F000450EBF002C1A46E4
:1051100002F010FB049A3B46FFF7B0FE0CE00328B8
:1051200002D100200B4907E0042807BF4FF0FF30F1
:105130006FF0004100200021059A0AB181F0004182
:1051400009B0BDE8F089000002FCFFFF0000E03F6D
:10515000FFFF0F800000F07F0000F03F3CBF737F37
:10516000DD4F1575436FAC642806C80A65CDCD4187
:105170000000B0410023002200213BE701F0004283
:105180008B1AA3F16051B1F5801F0ADBB1F17F6F7B
:105190001FD242EAC102C10071F1004142EB5070DE
:1051A00070470B15C3F10903212B10D2890241EA84
:1051B000905180020128494141F0004121FA03F059
:1051C000C3F12003994071F1004150417047100034
:1051D00070476FF0000013EB103F5CBF000E42EA17
:1051E000C0507047C0F3C75181B1FF2906D0C1102C
:1051F000400721F0E04101F16051704741020CBFCE
:1052000040F4E0016FF000410020704700F00041E1
:1052100000020AD0B0FA80FC00FA0CF001F16051F3
:10522000A1EB0C5101EBD0214005704780B50C4833
:10523000016841F010010160032002F0F0FD002040
:1052400002F008FE02F042FE002002BD05480068A0
:1052500070470548006870470448006870470000C0
:1052600000200240E8F7FF1FECF7FF1FF0F7FF1FD9
:1052700010B5040001D1012010BD607C002804D1CC
:10528000002020742046FEF74DFC0220607420466A
:1052900000F096F9002835D1204600F0F8F90028F2
:1052A00030D120684168C908C9004160DFF808139F
:1052B000A068002803D048684008400048600A6899
:1052C00022F46072A06802430A60606810F1010F66
:1052D00005D1012002F066F8002813D0401E216895
:1052E0008A681209120142EA10428A602168CA687B
:1052F000120C80B250EA0240C860204600F0DFF98C
:10530000002803D004206074012010BD0020E07349
:1053100001206073A0736074002010BD2DE9F0417E
:1053200004460D46002C01D0002D01D1012049E09A
:10533000207C012801D1022044E0012020740220B9
:1053400060742E783C274FF46168002A06D1687893
:10535000474308FB0676A87886190DE0304600F032
:10536000D3F90646687800F0CFF9474308FB067684
:10537000A87800F0C9F986193146204600F04DF9A9
:10538000002815D12068416821F0050141602046C0
:1053900000F05CF910F1010F10D0B0420ED2DFF82E
:1053A0001C1208180146204600F058F9002805D0C4
:1053B0000420607400202074012003E00120607448
:1053C00000202074BDE8F0812DE9F84304460E4624
:1053D0001546002C52D0002E50D02068406840075F
:1053E0004CD4204600F008F907464FF46160B7FB43
:1053F000F0F04FF4616101FB10713C22B1FBF2F25D
:105400007270C2EB0213A1EB8301B170182837D37D
:105410001821B0FBF1F808EB4801A0EBC100307097
:10542000204600F013F9814619F1010F04D04F45D1
:1054300002D2A9EB070901E04FF0FF39DFF87C0148
:1054400000FB18773946204600F0E7F8002815D110
:1054500019F1010F0BD04F443946204600F0FEF8F9
:1054600000280BD14146204600F058F909E04FF0E2
:10547000FF31204600F0F2F80028F3D001200FE0C1
:105480003070002D0BD0307800F032F93070707829
:1054900000F02EF97070B07800F02AF9B07000209A
:1054A000BDE8F28370B504460D46002C01D0002DF6
:1054B00001D1012070BD207C012801D1022070BDE6
:1054C0000120207402206074E878002A05D1E0737E
:1054D00068786073A878A0730AE000F015F9E073AB
:1054E000687800F011F96073A87800F00DF9A073E6
:1054F000A27B617BE07B00F08FF92073287020464F
:1055000000F07AF805464FF46160B5FBF0F018281A
:1055100020D92A4E1821B0FBF1F006FB1055294680
:10552000204600F07AF800280ED1204600F08EF8D0
:1055300010F1010F0ED0A8420CD236183146204689
:1055400000F08CF8002805D004206074002020743E
:10555000012070BD012060740020207470BD7CB5F6
:1055600004460D4616460FF2203000680090002CCD
:1055700008D0002D06D0002269462046FFF724FF00
:10558000002801D0012076BD207B2870E07BE870E8
:10559000607B6870A07BA870002E0BD0E87800F0CC
:1055A000A7F8E870687800F0A3F86870A87800F0B1
:1055B0009FF8A870002076BD2C6C0040805101003F
:1055C00038B5040001D1012032BD2068416821F0C6
:1055D0000801416000F010FC0546206840680007A3
:1055E00008D400F009FC401B40F2E9318842F4D3B2
:1055F000032032BD002032BD01688A6992B2C869B9
:105600008B699BB29A4204D0C86980B240EA0340D9
:10561000704780B240EA0240704770B504460D46BC
:10562000002600F034F8002801D001260CE02846BE
:10563000000C21688861ADB22068C561204600F089
:105640003EF8002800D00126304670BD0068016A8F
:10565000406A89B280B240EA0140704770B50446A2
:105660000D46002600F013F8002801D001260CE0BA
:105670002846000C21680862ADB2206845622046C9
:1056800000F01DF8002800D00126304670BD38B566
:10569000044600F0B1FB054620684168890608D43D
:1056A00000F0AAFB401B40F2E9318842F4D303200A
:1056B00032BD416841F010014160002032BD38B573
:1056C00004462068416821F01001416000F094FB1D
:1056D000054620684068800608D400F08DFB401B1A
:1056E00040F2E9318842F4D3032032BD002032BDBC
:1056F000002101E0491C0A380246D2B20A2AF9D236
:1057000040EA0110C0B270470146090901EB81026D
:1057100000F00F0000EB4200C0B270472DE9F843E3
:1057200004460D460026E77B94F80D8094F80E9011
:1057300017E0B9F11D0F13D108F101084FF001096D
:105740000EE0B8F1020F0BD1B9F11C0F06D3F0D166
:10575000384680B200F046F80028EDD009F1010982
:10576000761CAE422FD2B8F1010F11D0B8F1030F61
:105770000ED0B8F1050F0BD0B8F1070F08D0B8F173
:10578000080F05D0B8F10A0F02D0B8F10C0F0AD1FA
:10579000B9F11E0FE2D9B8F10C0FCDD14FF00108CD
:1057A000C1467F1CDCE7B8F1040F08D0B8F1060F42
:1057B00005D0B8F1090F02D0B8F10B0FC1D1B9F182
:1057C0001D0FB9D8CAE7E77384F80D8084F80E90EE
:1057D0004A46D2B24146C9B2384600F01DF820739D
:1057E000BDE8F183014611F0030F01D0002070479E
:1057F0006421B0FBF1F1642202FB1101002901D008
:10580000012070474FF4C871B0FBF1F201FB1200A8
:10581000401E8041C00F704710B400F5FA60172396
:105820004B430924B3FBF4F3D2188218032913D293
:10583000401E02EB9002121D6421B0FBF1F1521ADE
:105840004FF4C871B0FBF1F082180720B2FBF0F002
:10585000C0EBC000121A12E002EB9002121D64218C
:10586000B0FBF1F1521A4FF4C871B0FBF1F082189D
:10587000921E0720B2FBF0F0C0EBC000121A1046D7
:10588000C0B210BC704700000000000001200149B8
:105890000860704720000E4292B2054800EB81007C
:1058A00002607047024800EB8100006880B27047D8
:1058B000006C004080B5DFF8F804DFF8F8140160F0
:1058C0004FF4E131416000218160C16001610C2130
:1058D000416100218161C161FEF71CFA002803D0FB
:1058E000BDE80140FFF708B801BD80B5DFF8C80486
:1058F000DFF8C81441644FF4E13181640021C164D0
:10590000016541650C2181650021C1650166443056
:10591000FEF700FA002803D0BDE80140FEF7ECBF17
:1059200001BD80B5DFF89804DFF8981441644FF4A6
:10593000E13181640021C164016541650C2181650B
:105940000021C16501664430FEF7E4F9002803D068
:10595000BDE80140FEF7D0BF01BD80B5DFF86804A7
:10596000DFF8681401604FF4E1314160002181608B
:10597000C16001610C21416100218161C161FEF7BB
:10598000C9F9002803D0BDE80140FEF7B5BF01BD4D
:10599000F0B585B004466846102101F091FC2068FE
:1059A000DFF81014884233D1DFF82404416841F451
:1059B00000214160416801F40021049104990168CB
:1059C00041F010010160006800F01000049004989C
:1059D0004FF4806000900220019003200390DFF8D4
:1059E000F44369462046FDF7E1FB4FF40060009068
:1059F00000200190029069462046FDF7D7FB002267
:105A00000521342002F00CFA342002F018FA3CE1AF
:105A1000DFF8A813884268D1DFF8B403016841F4C5
:105A200080410160016801F480410491049901689A
:105A300041F004010160006800F004000490049843
:105A40004FF4007000900220019003200390DFF8D3
:105A5000885369462846FDF7A9FB4FF48060009003
:105A600000200190029069462846FDF79FFBDFF871
:105A70006C53DFF8446305F13C0030600020706037
:105A8000B0608020F060002030617061B0614FF440
:105A90008057F761304600F0B5F9002801D0FEF7D5
:105AA0002BFF66637462DFF8386305F1280030600D
:105AB000102070600020B0608020F0600020306115
:105AC0007061B061F761304600F09CF9002801D0A8
:105AD000FEF712FF2663746200220521252002F0E2
